{
  "contractName": "SimpleStorage",
  "abi": [
    {
      "constant": false,
      "inputs": [
        {
          "name": "x",
          "type": "string"
        }
      ],
      "name": "set",
      "outputs": [],
      "payable": false,
      "stateMutability": "nonpayable",
      "type": "function"
    },
    {
      "constant": true,
      "inputs": [],
      "name": "get",
      "outputs": [
        {
          "name": "",
          "type": "string"
        }
      ],
      "payable": false,
      "stateMutability": "view",
      "type": "function"
    }
  ],
  "bytecode": "0x608060405234801561001057600080fd5b506102a7806100206000396000f30060806040526004361061004b5763ffffffff7c01000000000000000000000000000000000000000000000000000000006000350416634ed3885e81146100505780636d4ce63c146100ab575b600080fd5b34801561005c57600080fd5b506040805160206004803580820135601f81018490048402850184019095528484526100a99436949293602493928401919081908401838280828437509497506101359650505050505050565b005b3480156100b757600080fd5b506100c061014c565b6040805160208082528351818301528351919283929083019185019080838360005b838110156100fa5781810151838201526020016100e2565b50505050905090810190601f1680156101275780820380516001836020036101000a031916815260200191505b509250505060405180910390f35b80516101489060009060208401906101e3565b5050565b60008054604080516020601f60026000196101006001881615020190951694909404938401819004810282018101909252828152606093909290918301828280156101d85780601f106101ad576101008083540402835291602001916101d8565b820191906000526020600020905b8154815290600101906020018083116101bb57829003601f168201915b505050505090505b90565b828054600181600116156101000203166002900490600052602060002090601f016020900481019282601f1061022457805160ff1916838001178555610251565b82800160010185558215610251579182015b82811115610251578251825591602001919060010190610236565b5061025d929150610261565b5090565b6101e091905b8082111561025d57600081556001016102675600a165627a7a72305820715a4353696a7c6d4d057b95c9fc3e38e6e60f7edabcfc2909c21a7959aa62730029",
  "source": "pragma solidity 0.4.24;\n\ncontract SimpleStorage {\n  string value;\n\n  function set(string x) public {\n    value = x;\n  }\n\n  function get() public view returns (string) {\n    return value;\n  }\n}\n",
  "sourcePath": "/Users/gregory/code/hd_wallet/contracts/SimpleStorage.sol",
  "compiler": {
    "name": "solc",
    "version": "0.4.24+commit.e67f0147.Emscripten.clang"
  },
  "schemaVersion": "2.0.0",
  "updatedAt": "2018-07-13T15:01:47.420Z"
}